{
  "_format": "hh-sol-artifact-1",
  "contractName": "Library",
  "sourceName": "contracts/Library.sol",
  "abi": [
    {
      "anonymous": false,
      "inputs": [
        {
          "indexed": false,
          "internalType": "address",
          "name": "recipient",
          "type": "address"
        },
        {
          "indexed": false,
          "internalType": "uint256",
          "name": "workId",
          "type": "uint256"
        }
      ],
      "name": "DeleteWork",
      "type": "event"
    },
    {
      "inputs": [
        {
          "internalType": "string",
          "name": "name",
          "type": "string"
        },
        {
          "internalType": "uint16",
          "name": "year",
          "type": "uint16"
        },
        {
          "internalType": "string",
          "name": "author",
          "type": "string"
        },
        {
          "internalType": "string",
          "name": "ipfsHash",
          "type": "string"
        }
      ],
      "name": "addWork",
      "outputs": [],
      "stateMutability": "nonpayable",
      "type": "function"
    },
    {
      "inputs": [
        {
          "internalType": "uint256",
          "name": "workId",
          "type": "uint256"
        }
      ],
      "name": "deleteWork",
      "outputs": [],
      "stateMutability": "nonpayable",
      "type": "function"
    },
    {
      "inputs": [
        {
          "internalType": "uint256",
          "name": "workId",
          "type": "uint256"
        }
      ],
      "name": "getWorkById",
      "outputs": [
        {
          "components": [
            {
              "internalType": "uint256",
              "name": "id",
              "type": "uint256"
            },
            {
              "internalType": "string",
              "name": "name",
              "type": "string"
            },
            {
              "internalType": "uint256",
              "name": "year",
              "type": "uint256"
            },
            {
              "internalType": "string",
              "name": "author",
              "type": "string"
            },
            {
              "internalType": "string",
              "name": "ipfsHash",
              "type": "string"
            }
          ],
          "internalType": "struct Library.Work",
          "name": "",
          "type": "tuple"
        }
      ],
      "stateMutability": "view",
      "type": "function"
    },
    {
      "inputs": [],
      "name": "getWorkList",
      "outputs": [
        {
          "components": [
            {
              "internalType": "uint256",
              "name": "id",
              "type": "uint256"
            },
            {
              "internalType": "string",
              "name": "name",
              "type": "string"
            },
            {
              "internalType": "uint256",
              "name": "year",
              "type": "uint256"
            },
            {
              "internalType": "string",
              "name": "author",
              "type": "string"
            },
            {
              "internalType": "string",
              "name": "ipfsHash",
              "type": "string"
            }
          ],
          "internalType": "struct Library.Work[]",
          "name": "",
          "type": "tuple[]"
        }
      ],
      "stateMutability": "view",
      "type": "function"
    },
    {
      "inputs": [
        {
          "internalType": "address",
          "name": "_address",
          "type": "address"
        }
      ],
      "name": "getWorksByAddress",
      "outputs": [
        {
          "components": [
            {
              "internalType": "uint256",
              "name": "id",
              "type": "uint256"
            },
            {
              "internalType": "string",
              "name": "name",
              "type": "string"
            },
            {
              "internalType": "uint256",
              "name": "year",
              "type": "uint256"
            },
            {
              "internalType": "string",
              "name": "author",
              "type": "string"
            },
            {
              "internalType": "string",
              "name": "ipfsHash",
              "type": "string"
            }
          ],
          "internalType": "struct Library.Work[]",
          "name": "",
          "type": "tuple[]"
        }
      ],
      "stateMutability": "view",
      "type": "function"
    },
    {
      "inputs": [
        {
          "internalType": "uint256",
          "name": "",
          "type": "uint256"
        }
      ],
      "name": "workList",
      "outputs": [
        {
          "internalType": "uint256",
          "name": "id",
          "type": "uint256"
        },
        {
          "internalType": "string",
          "name": "name",
          "type": "string"
        },
        {
          "internalType": "uint256",
          "name": "year",
          "type": "uint256"
        },
        {
          "internalType": "string",
          "name": "author",
          "type": "string"
        },
        {
          "internalType": "string",
          "name": "ipfsHash",
          "type": "string"
        }
      ],
      "stateMutability": "view",
      "type": "function"
    }
  ],
  "bytecode": "0x608060405234801561001057600080fd5b50611bca806100206000396000f3fe608060405234801561001057600080fd5b50600436106100625760003560e01c80632e94fa8f14610067578063357abd0c1461008357806363806527146100b35780638589c725146100e7578063bdf1fcc914610103578063e7e053fc14610133575b600080fd5b610081600480360381019061007c9190611203565b610151565b005b61009d6004803603810190610098919061131c565b610330565b6040516100aa9190611527565b60405180910390f35b6100cd60048036038101906100c89190611575565b61070b565b6040516100de9594939291906115fb565b60405180910390f35b61010160048036038101906100fc9190611575565b6108e9565b005b61011d60048036038101906101189190611575565b610b6d565b60405161012a91906116e7565b60405180910390f35b61013b610dba565b6040516101489190611527565b60405180910390f35b60008080549050905060006040518060a001604052808381526020018781526020018661ffff1681526020018581526020018481525090806001815401808255809150506001900390600052602060002090600502016000909190919091506000820151816000015560208201518160010190816101cf9190611915565b506040820151816002015560608201518160030190816101ef9190611915565b5060808201518160040190816102059190611915565b505050336001600083815260200190815260200160002060006101000a81548173ffffffffffffffffffffffffffffffffffffffff021916908373ffffffffffffffffffffffffffffffffffffffff1602179055506001600360003373ffffffffffffffffffffffffffffffffffffffff1673ffffffffffffffffffffffffffffffffffffffff168152602001908152602001600020600083815260200190815260200160002060006101000a81548160ff021916908315150217905550600260003373ffffffffffffffffffffffffffffffffffffffff1673ffffffffffffffffffffffffffffffffffffffff1681526020019081526020016000208190806001815401808255809150506001900390600052602060002001600090919091909150555050505050565b60606000600260008473ffffffffffffffffffffffffffffffffffffffff1673ffffffffffffffffffffffffffffffffffffffff1681526020019081526020016000208054806020026020016040519081016040528092919081815260200182805480156103bd57602002820191906000526020600020905b8154815260200190600101908083116103a9575b505050505090506000815167ffffffffffffffff8111156103e1576103e061109e565b5b60405190808252806020026020018201604052801561041a57816020015b610407610fe3565b8152602001906001900390816103ff5790505b5090506000805b83518110156106f257600084828151811061043f5761043e6119e7565b5b602002602001015190506000805490508110156106de57600360008873ffffffffffffffffffffffffffffffffffffffff1673ffffffffffffffffffffffffffffffffffffffff168152602001908152602001600020600082815260200190815260200160002060009054906101000a900460ff16156106dd57600081815481106104cd576104cc6119e7565b5b90600052602060002090600502016040518060a00160405290816000820154815260200160018201805461050090611738565b80601f016020809104026020016040519081016040528092919081815260200182805461052c90611738565b80156105795780601f1061054e57610100808354040283529160200191610579565b820191906000526020600020905b81548152906001019060200180831161055c57829003601f168201915b505050505081526020016002820154815260200160038201805461059c90611738565b80601f01602080910402602001604051908101604052809291908181526020018280546105c890611738565b80156106155780601f106105ea57610100808354040283529160200191610615565b820191906000526020600020905b8154815290600101906020018083116105f857829003601f168201915b5050505050815260200160048201805461062e90611738565b80601f016020809104026020016040519081016040528092919081815260200182805461065a90611738565b80156106a75780601f1061067c576101008083540402835291602001916106a7565b820191906000526020600020905b81548152906001019060200180831161068a57829003601f168201915b5050505050815250508484815181106106c3576106c26119e7565b5b602002602001018190525082806106d990611a45565b9350505b5b5080806106ea90611a45565b915050610421565b508251811015610700578082525b819350505050919050565b6000818154811061071b57600080fd5b906000526020600020906005020160009150905080600001549080600101805461074490611738565b80601f016020809104026020016040519081016040528092919081815260200182805461077090611738565b80156107bd5780601f10610792576101008083540402835291602001916107bd565b820191906000526020600020905b8154815290600101906020018083116107a057829003601f168201915b5050505050908060020154908060030180546107d890611738565b80601f016020809104026020016040519081016040528092919081815260200182805461080490611738565b80156108515780601f1061082657610100808354040283529160200191610851565b820191906000526020600020905b81548152906001019060200180831161083457829003601f168201915b50505050509080600401805461086690611738565b80601f016020809104026020016040519081016040528092919081815260200182805461089290611738565b80156108df5780601f106108b4576101008083540402835291602001916108df565b820191906000526020600020905b8154815290600101906020018083116108c257829003601f168201915b5050505050905085565b6000805490508110610930576040517f08c379a000000000000000000000000000000000000000000000000000000000815260040161092790611ad9565b60405180910390fd5b60008181548110610944576109436119e7565b5b906000526020600020906005020160008082016000905560018201600061096b9190611012565b60028201600090556003820160006109839190611012565b6004820160006109939190611012565b50506001600082815260200190815260200160002060006101000a81549073ffffffffffffffffffffffffffffffffffffffff0219169055600360003373ffffffffffffffffffffffffffffffffffffffff1673ffffffffffffffffffffffffffffffffffffffff168152602001908152602001600020600082815260200190815260200160002060006101000a81549060ff02191690556000600260003373ffffffffffffffffffffffffffffffffffffffff1673ffffffffffffffffffffffffffffffffffffffff168152602001908152602001600020905060005b8180549050811015610b2f5782828281548110610a9157610a906119e7565b5b906000526020600020015403610b1c578160018380549050610ab39190611af9565b81548110610ac457610ac36119e7565b5b9060005260206000200154828281548110610ae257610ae16119e7565b5b906000526020600020018190555081805480610b0157610b00611b2d565b5b60019003818190600052602060002001600090559055610b2f565b8080610b2790611a45565b915050610a71565b507f626180e89f2766961e1de0ee817d0918a77963752a55e2b8f12f891169c87daa3383604051610b61929190611b6b565b60405180910390a15050565b610b75610fe3565b6000805490508210610bbc576040517f08c379a0000000000000000000000000000000000000000000000000000000008152600401610bb390611ad9565b60405180910390fd5b60008281548110610bd057610bcf6119e7565b5b90600052602060002090600502016040518060a001604052908160008201548152602001600182018054610c0390611738565b80601f0160208091040260200160405190810160405280929190818152602001828054610c2f90611738565b8015610c7c5780601f10610c5157610100808354040283529160200191610c7c565b820191906000526020600020905b815481529060010190602001808311610c5f57829003601f168201915b5050505050815260200160028201548152602001600382018054610c9f90611738565b80601f0160208091040260200160405190810160405280929190818152602001828054610ccb90611738565b8015610d185780601f10610ced57610100808354040283529160200191610d18565b820191906000526020600020905b815481529060010190602001808311610cfb57829003601f168201915b50505050508152602001600482018054610d3190611738565b80601f0160208091040260200160405190810160405280929190818152602001828054610d5d90611738565b8015610daa5780601f10610d7f57610100808354040283529160200191610daa565b820191906000526020600020905b815481529060010190602001808311610d8d57829003601f168201915b5050505050815250509050919050565b60606000805480602002602001604051908101604052809291908181526020016000905b82821015610fda57838290600052602060002090600502016040518060a001604052908160008201548152602001600182018054610e1b90611738565b80601f0160208091040260200160405190810160405280929190818152602001828054610e4790611738565b8015610e945780601f10610e6957610100808354040283529160200191610e94565b820191906000526020600020905b815481529060010190602001808311610e7757829003601f168201915b5050505050815260200160028201548152602001600382018054610eb790611738565b80601f0160208091040260200160405190810160405280929190818152602001828054610ee390611738565b8015610f305780601f10610f0557610100808354040283529160200191610f30565b820191906000526020600020905b815481529060010190602001808311610f1357829003601f168201915b50505050508152602001600482018054610f4990611738565b80601f0160208091040260200160405190810160405280929190818152602001828054610f7590611738565b8015610fc25780601f10610f9757610100808354040283529160200191610fc2565b820191906000526020600020905b815481529060010190602001808311610fa557829003601f168201915b50505050508152505081526020019060010190610dde565b50505050905090565b6040518060a0016040528060008152602001606081526020016000815260200160608152602001606081525090565b50805461101e90611738565b6000825580601f10611030575061104f565b601f01602090049060005260206000209081019061104e9190611052565b5b50565b5b8082111561106b576000816000905550600101611053565b5090565b6000604051905090565b600080fd5b600080fd5b600080fd5b600080fd5b6000601f19601f8301169050919050565b7f4e487b7100000000000000000000000000000000000000000000000000000000600052604160045260246000fd5b6110d68261108d565b810181811067ffffffffffffffff821117156110f5576110f461109e565b5b80604052505050565b600061110861106f565b905061111482826110cd565b919050565b600067ffffffffffffffff8211156111345761113361109e565b5b61113d8261108d565b9050602081019050919050565b82818337600083830152505050565b600061116c61116784611119565b6110fe565b90508281526020810184848401111561118857611187611088565b5b61119384828561114a565b509392505050565b600082601f8301126111b0576111af611083565b5b81356111c0848260208601611159565b91505092915050565b600061ffff82169050919050565b6111e0816111c9565b81146111eb57600080fd5b50565b6000813590506111fd816111d7565b92915050565b6000806000806080858703121561121d5761121c611079565b5b600085013567ffffffffffffffff81111561123b5761123a61107e565b5b6112478782880161119b565b9450506020611258878288016111ee565b935050604085013567ffffffffffffffff8111156112795761127861107e565b5b6112858782880161119b565b925050606085013567ffffffffffffffff8111156112a6576112a561107e565b5b6112b28782880161119b565b91505092959194509250565b600073ffffffffffffffffffffffffffffffffffffffff82169050919050565b60006112e9826112be565b9050919050565b6112f9816112de565b811461130457600080fd5b50565b600081359050611316816112f0565b92915050565b60006020828403121561133257611331611079565b5b600061134084828501611307565b91505092915050565b600081519050919050565b600082825260208201905092915050565b6000819050602082019050919050565b6000819050919050565b61138881611375565b82525050565b600081519050919050565b600082825260208201905092915050565b60005b838110156113c85780820151818401526020810190506113ad565b60008484015250505050565b60006113df8261138e565b6113e98185611399565b93506113f98185602086016113aa565b6114028161108d565b840191505092915050565b600060a083016000830151611425600086018261137f565b506020830151848203602086015261143d82826113d4565b9150506040830151611452604086018261137f565b506060830151848203606086015261146a82826113d4565b9150506080830151848203608086015261148482826113d4565b9150508091505092915050565b600061149d838361140d565b905092915050565b6000602082019050919050565b60006114bd82611349565b6114c78185611354565b9350836020820285016114d985611365565b8060005b8581101561151557848403895281516114f68582611491565b9450611501836114a5565b925060208a019950506001810190506114dd565b50829750879550505050505092915050565b6000602082019050818103600083015261154181846114b2565b905092915050565b61155281611375565b811461155d57600080fd5b50565b60008135905061156f81611549565b92915050565b60006020828403121561158b5761158a611079565b5b600061159984828501611560565b91505092915050565b6115ab81611375565b82525050565b600082825260208201905092915050565b60006115cd8261138e565b6115d781856115b1565b93506115e78185602086016113aa565b6115f08161108d565b840191505092915050565b600060a08201905061161060008301886115a2565b818103602083015261162281876115c2565b905061163160408301866115a2565b818103606083015261164381856115c2565b9050818103608083015261165781846115c2565b90509695505050505050565b600060a08301600083015161167b600086018261137f565b506020830151848203602086015261169382826113d4565b91505060408301516116a8604086018261137f565b50606083015184820360608601526116c082826113d4565b915050608083015184820360808601526116da82826113d4565b9150508091505092915050565b600060208201905081810360008301526117018184611663565b905092915050565b7f4e487b7100000000000000000000000000000000000000000000000000000000600052602260045260246000fd5b6000600282049050600182168061175057607f821691505b60208210810361176357611762611709565b5b50919050565b60008190508160005260206000209050919050565b60006020601f8301049050919050565b600082821b905092915050565b6000600883026117cb7fffffffffffffffffffffffffffffffffffffffffffffffffffffffffffffffff8261178e565b6117d5868361178e565b95508019841693508086168417925050509392505050565b6000819050919050565b600061181261180d61180884611375565b6117ed565b611375565b9050919050565b6000819050919050565b61182c836117f7565b61184061183882611819565b84845461179b565b825550505050565b600090565b611855611848565b611860818484611823565b505050565b5b818110156118845761187960008261184d565b600181019050611866565b5050565b601f8211156118c95761189a81611769565b6118a38461177e565b810160208510156118b2578190505b6118c66118be8561177e565b830182611865565b50505b505050565b600082821c905092915050565b60006118ec600019846008026118ce565b1980831691505092915050565b600061190583836118db565b9150826002028217905092915050565b61191e8261138e565b67ffffffffffffffff8111156119375761193661109e565b5b6119418254611738565b61194c828285611888565b600060209050601f83116001811461197f576000841561196d578287015190505b61197785826118f9565b8655506119df565b601f19841661198d86611769565b60005b828110156119b557848901518255600182019150602085019450602081019050611990565b868310156119d257848901516119ce601f8916826118db565b8355505b6001600288020188555050505b505050505050565b7f4e487b7100000000000000000000000000000000000000000000000000000000600052603260045260246000fd5b7f4e487b7100000000000000000000000000000000000000000000000000000000600052601160045260246000fd5b6000611a5082611375565b91507fffffffffffffffffffffffffffffffffffffffffffffffffffffffffffffffff8203611a8257611a81611a16565b5b600182019050919050565b7f496e76616c696420776f726b2049440000000000000000000000000000000000600082015250565b6000611ac3600f836115b1565b9150611ace82611a8d565b602082019050919050565b60006020820190508181036000830152611af281611ab6565b9050919050565b6000611b0482611375565b9150611b0f83611375565b9250828203905081811115611b2757611b26611a16565b5b92915050565b7f4e487b7100000000000000000000000000000000000000000000000000000000600052603160045260246000fd5b611b65816112de565b82525050565b6000604082019050611b806000830185611b5c565b611b8d60208301846115a2565b939250505056fea2646970667358221220e92e690b5a68af556dedb45d88b5852cf48a54247de8d1968e1e8e219f48e4b764736f6c63430008120033",
  "linkReferences": {},
  "deployedLinkReferences": {}
}