{
  "_format": "hh-sol-artifact-1",
  "contractName": "Library",
  "sourceName": "contracts/Library.sol",
  "abi": [
    {
      "anonymous": false,
      "inputs": [
        {
          "indexed": false,
          "internalType": "address",
          "name": "recipient",
          "type": "address"
        },
        {
          "indexed": false,
          "internalType": "uint256",
          "name": "workId",
          "type": "uint256"
        }
      ],
      "name": "AddWork",
      "type": "event"
    },
    {
      "anonymous": false,
      "inputs": [
        {
          "indexed": false,
          "internalType": "address",
          "name": "recipient",
          "type": "address"
        },
        {
          "indexed": false,
          "internalType": "uint256",
          "name": "workId",
          "type": "uint256"
        }
      ],
      "name": "DeleteWork",
      "type": "event"
    },
    {
      "inputs": [
        {
          "internalType": "string",
          "name": "name",
          "type": "string"
        },
        {
          "internalType": "uint16",
          "name": "year",
          "type": "uint16"
        },
        {
          "internalType": "string",
          "name": "author",
          "type": "string"
        },
        {
          "internalType": "string",
          "name": "ipfsHash",
          "type": "string"
        }
      ],
      "name": "addWork",
      "outputs": [],
      "stateMutability": "nonpayable",
      "type": "function"
    },
    {
      "inputs": [
        {
          "internalType": "uint256",
          "name": "workId",
          "type": "uint256"
        }
      ],
      "name": "deleteWork",
      "outputs": [],
      "stateMutability": "nonpayable",
      "type": "function"
    },
    {
      "inputs": [
        {
          "internalType": "uint256",
          "name": "workId",
          "type": "uint256"
        }
      ],
      "name": "getWorkById",
      "outputs": [
        {
          "components": [
            {
              "internalType": "uint256",
              "name": "id",
              "type": "uint256"
            },
            {
              "internalType": "string",
              "name": "name",
              "type": "string"
            },
            {
              "internalType": "uint256",
              "name": "year",
              "type": "uint256"
            },
            {
              "internalType": "string",
              "name": "author",
              "type": "string"
            },
            {
              "internalType": "string",
              "name": "ipfsHash",
              "type": "string"
            }
          ],
          "internalType": "struct Library.Work",
          "name": "",
          "type": "tuple"
        }
      ],
      "stateMutability": "view",
      "type": "function"
    },
    {
      "inputs": [],
      "name": "getWorkList",
      "outputs": [
        {
          "components": [
            {
              "internalType": "uint256",
              "name": "id",
              "type": "uint256"
            },
            {
              "internalType": "string",
              "name": "name",
              "type": "string"
            },
            {
              "internalType": "uint256",
              "name": "year",
              "type": "uint256"
            },
            {
              "internalType": "string",
              "name": "author",
              "type": "string"
            },
            {
              "internalType": "string",
              "name": "ipfsHash",
              "type": "string"
            }
          ],
          "internalType": "struct Library.Work[]",
          "name": "",
          "type": "tuple[]"
        }
      ],
      "stateMutability": "view",
      "type": "function"
    },
    {
      "inputs": [
        {
          "internalType": "address",
          "name": "_address",
          "type": "address"
        }
      ],
      "name": "getWorksByAddress",
      "outputs": [
        {
          "components": [
            {
              "internalType": "uint256",
              "name": "id",
              "type": "uint256"
            },
            {
              "internalType": "string",
              "name": "name",
              "type": "string"
            },
            {
              "internalType": "uint256",
              "name": "year",
              "type": "uint256"
            },
            {
              "internalType": "string",
              "name": "author",
              "type": "string"
            },
            {
              "internalType": "string",
              "name": "ipfsHash",
              "type": "string"
            }
          ],
          "internalType": "struct Library.Work[]",
          "name": "",
          "type": "tuple[]"
        }
      ],
      "stateMutability": "view",
      "type": "function"
    }
  ],
  "bytecode": "0x608060405234801561001057600080fd5b50611945806100206000396000f3fe608060405234801561001057600080fd5b50600436106100575760003560e01c80632e94fa8f1461005c578063357abd0c146100785780638589c725146100a8578063bdf1fcc9146100c4578063e7e053fc146100f4575b600080fd5b6100766004803603810190610071919061101f565b610112565b005b610092600480360381019061008d9190611138565b61032a565b60405161009f9190611343565b60405180910390f35b6100c260048036038101906100bd9190611391565b610705565b005b6100de60048036038101906100d99190611391565b610989565b6040516100eb9190611442565b60405180910390f35b6100fc610bd6565b6040516101099190611343565b60405180910390f35b60008080549050905060006040518060a001604052808381526020018781526020018661ffff1681526020018581526020018481525090806001815401808255809150506001900390600052602060002090600502016000909190919091506000820151816000015560208201518160010190816101909190611670565b506040820151816002015560608201518160030190816101b09190611670565b5060808201518160040190816101c69190611670565b505050336001600083815260200190815260200160002060006101000a81548173ffffffffffffffffffffffffffffffffffffffff021916908373ffffffffffffffffffffffffffffffffffffffff1602179055507f1d694c32805025cec126fd58df01efc11762c9ec03f0143cbc6279506c5ea526338260405161024c929190611760565b60405180910390a16001600360003373ffffffffffffffffffffffffffffffffffffffff1673ffffffffffffffffffffffffffffffffffffffff168152602001908152602001600020600083815260200190815260200160002060006101000a81548160ff021916908315150217905550600260003373ffffffffffffffffffffffffffffffffffffffff1673ffffffffffffffffffffffffffffffffffffffff1681526020019081526020016000208190806001815401808255809150506001900390600052602060002001600090919091909150555050505050565b60606000600260008473ffffffffffffffffffffffffffffffffffffffff1673ffffffffffffffffffffffffffffffffffffffff1681526020019081526020016000208054806020026020016040519081016040528092919081815260200182805480156103b757602002820191906000526020600020905b8154815260200190600101908083116103a3575b505050505090506000815167ffffffffffffffff8111156103db576103da610eba565b5b60405190808252806020026020018201604052801561041457816020015b610401610dff565b8152602001906001900390816103f95790505b5090506000805b83518110156106ec57600084828151811061043957610438611789565b5b602002602001015190506000805490508110156106d857600360008873ffffffffffffffffffffffffffffffffffffffff1673ffffffffffffffffffffffffffffffffffffffff168152602001908152602001600020600082815260200190815260200160002060009054906101000a900460ff16156106d757600081815481106104c7576104c6611789565b5b90600052602060002090600502016040518060a0016040529081600082015481526020016001820180546104fa90611493565b80601f016020809104026020016040519081016040528092919081815260200182805461052690611493565b80156105735780601f1061054857610100808354040283529160200191610573565b820191906000526020600020905b81548152906001019060200180831161055657829003601f168201915b505050505081526020016002820154815260200160038201805461059690611493565b80601f01602080910402602001604051908101604052809291908181526020018280546105c290611493565b801561060f5780601f106105e45761010080835404028352916020019161060f565b820191906000526020600020905b8154815290600101906020018083116105f257829003601f168201915b5050505050815260200160048201805461062890611493565b80601f016020809104026020016040519081016040528092919081815260200182805461065490611493565b80156106a15780601f10610676576101008083540402835291602001916106a1565b820191906000526020600020905b81548152906001019060200180831161068457829003601f168201915b5050505050815250508484815181106106bd576106bc611789565b5b602002602001018190525082806106d3906117e7565b9350505b5b5080806106e4906117e7565b91505061041b565b5082518110156106fa578082525b819350505050919050565b600080549050811061074c576040517f08c379a00000000000000000000000000000000000000000000000000000000081526004016107439061188c565b60405180910390fd5b600081815481106107605761075f611789565b5b90600052602060002090600502016000808201600090556001820160006107879190610e2e565b600282016000905560038201600061079f9190610e2e565b6004820160006107af9190610e2e565b50506001600082815260200190815260200160002060006101000a81549073ffffffffffffffffffffffffffffffffffffffff0219169055600360003373ffffffffffffffffffffffffffffffffffffffff1673ffffffffffffffffffffffffffffffffffffffff168152602001908152602001600020600082815260200190815260200160002060006101000a81549060ff02191690556000600260003373ffffffffffffffffffffffffffffffffffffffff1673ffffffffffffffffffffffffffffffffffffffff168152602001908152602001600020905060005b818054905081101561094b57828282815481106108ad576108ac611789565b5b9060005260206000200154036109385781600183805490506108cf91906118ac565b815481106108e0576108df611789565b5b90600052602060002001548282815481106108fe576108fd611789565b5b90600052602060002001819055508180548061091d5761091c6118e0565b5b6001900381819060005260206000200160009055905561094b565b8080610943906117e7565b91505061088d565b507f626180e89f2766961e1de0ee817d0918a77963752a55e2b8f12f891169c87daa338360405161097d929190611760565b60405180910390a15050565b610991610dff565b60008054905082106109d8576040517f08c379a00000000000000000000000000000000000000000000000000000000081526004016109cf9061188c565b60405180910390fd5b600082815481106109ec576109eb611789565b5b90600052602060002090600502016040518060a001604052908160008201548152602001600182018054610a1f90611493565b80601f0160208091040260200160405190810160405280929190818152602001828054610a4b90611493565b8015610a985780601f10610a6d57610100808354040283529160200191610a98565b820191906000526020600020905b815481529060010190602001808311610a7b57829003601f168201915b5050505050815260200160028201548152602001600382018054610abb90611493565b80601f0160208091040260200160405190810160405280929190818152602001828054610ae790611493565b8015610b345780601f10610b0957610100808354040283529160200191610b34565b820191906000526020600020905b815481529060010190602001808311610b1757829003601f168201915b50505050508152602001600482018054610b4d90611493565b80601f0160208091040260200160405190810160405280929190818152602001828054610b7990611493565b8015610bc65780601f10610b9b57610100808354040283529160200191610bc6565b820191906000526020600020905b815481529060010190602001808311610ba957829003601f168201915b5050505050815250509050919050565b60606000805480602002602001604051908101604052809291908181526020016000905b82821015610df657838290600052602060002090600502016040518060a001604052908160008201548152602001600182018054610c3790611493565b80601f0160208091040260200160405190810160405280929190818152602001828054610c6390611493565b8015610cb05780601f10610c8557610100808354040283529160200191610cb0565b820191906000526020600020905b815481529060010190602001808311610c9357829003601f168201915b5050505050815260200160028201548152602001600382018054610cd390611493565b80601f0160208091040260200160405190810160405280929190818152602001828054610cff90611493565b8015610d4c5780601f10610d2157610100808354040283529160200191610d4c565b820191906000526020600020905b815481529060010190602001808311610d2f57829003601f168201915b50505050508152602001600482018054610d6590611493565b80601f0160208091040260200160405190810160405280929190818152602001828054610d9190611493565b8015610dde5780601f10610db357610100808354040283529160200191610dde565b820191906000526020600020905b815481529060010190602001808311610dc157829003601f168201915b50505050508152505081526020019060010190610bfa565b50505050905090565b6040518060a0016040528060008152602001606081526020016000815260200160608152602001606081525090565b508054610e3a90611493565b6000825580601f10610e4c5750610e6b565b601f016020900490600052602060002090810190610e6a9190610e6e565b5b50565b5b80821115610e87576000816000905550600101610e6f565b5090565b6000604051905090565b600080fd5b600080fd5b600080fd5b600080fd5b6000601f19601f8301169050919050565b7f4e487b7100000000000000000000000000000000000000000000000000000000600052604160045260246000fd5b610ef282610ea9565b810181811067ffffffffffffffff82111715610f1157610f10610eba565b5b80604052505050565b6000610f24610e8b565b9050610f308282610ee9565b919050565b600067ffffffffffffffff821115610f5057610f4f610eba565b5b610f5982610ea9565b9050602081019050919050565b82818337600083830152505050565b6000610f88610f8384610f35565b610f1a565b905082815260208101848484011115610fa457610fa3610ea4565b5b610faf848285610f66565b509392505050565b600082601f830112610fcc57610fcb610e9f565b5b8135610fdc848260208601610f75565b91505092915050565b600061ffff82169050919050565b610ffc81610fe5565b811461100757600080fd5b50565b60008135905061101981610ff3565b92915050565b6000806000806080858703121561103957611038610e95565b5b600085013567ffffffffffffffff81111561105757611056610e9a565b5b61106387828801610fb7565b94505060206110748782880161100a565b935050604085013567ffffffffffffffff81111561109557611094610e9a565b5b6110a187828801610fb7565b925050606085013567ffffffffffffffff8111156110c2576110c1610e9a565b5b6110ce87828801610fb7565b91505092959194509250565b600073ffffffffffffffffffffffffffffffffffffffff82169050919050565b6000611105826110da565b9050919050565b611115816110fa565b811461112057600080fd5b50565b6000813590506111328161110c565b92915050565b60006020828403121561114e5761114d610e95565b5b600061115c84828501611123565b91505092915050565b600081519050919050565b600082825260208201905092915050565b6000819050602082019050919050565b6000819050919050565b6111a481611191565b82525050565b600081519050919050565b600082825260208201905092915050565b60005b838110156111e45780820151818401526020810190506111c9565b60008484015250505050565b60006111fb826111aa565b61120581856111b5565b93506112158185602086016111c6565b61121e81610ea9565b840191505092915050565b600060a083016000830151611241600086018261119b565b506020830151848203602086015261125982826111f0565b915050604083015161126e604086018261119b565b506060830151848203606086015261128682826111f0565b915050608083015184820360808601526112a082826111f0565b9150508091505092915050565b60006112b98383611229565b905092915050565b6000602082019050919050565b60006112d982611165565b6112e38185611170565b9350836020820285016112f585611181565b8060005b85811015611331578484038952815161131285826112ad565b945061131d836112c1565b925060208a019950506001810190506112f9565b50829750879550505050505092915050565b6000602082019050818103600083015261135d81846112ce565b905092915050565b61136e81611191565b811461137957600080fd5b50565b60008135905061138b81611365565b92915050565b6000602082840312156113a7576113a6610e95565b5b60006113b58482850161137c565b91505092915050565b600060a0830160008301516113d6600086018261119b565b50602083015184820360208601526113ee82826111f0565b9150506040830151611403604086018261119b565b506060830151848203606086015261141b82826111f0565b9150506080830151848203608086015261143582826111f0565b9150508091505092915050565b6000602082019050818103600083015261145c81846113be565b905092915050565b7f4e487b7100000000000000000000000000000000000000000000000000000000600052602260045260246000fd5b600060028204905060018216806114ab57607f821691505b6020821081036114be576114bd611464565b5b50919050565b60008190508160005260206000209050919050565b60006020601f8301049050919050565b600082821b905092915050565b6000600883026115267fffffffffffffffffffffffffffffffffffffffffffffffffffffffffffffffff826114e9565b61153086836114e9565b95508019841693508086168417925050509392505050565b6000819050919050565b600061156d61156861156384611191565b611548565b611191565b9050919050565b6000819050919050565b61158783611552565b61159b61159382611574565b8484546114f6565b825550505050565b600090565b6115b06115a3565b6115bb81848461157e565b505050565b5b818110156115df576115d46000826115a8565b6001810190506115c1565b5050565b601f821115611624576115f5816114c4565b6115fe846114d9565b8101602085101561160d578190505b611621611619856114d9565b8301826115c0565b50505b505050565b600082821c905092915050565b600061164760001984600802611629565b1980831691505092915050565b60006116608383611636565b9150826002028217905092915050565b611679826111aa565b67ffffffffffffffff81111561169257611691610eba565b5b61169c8254611493565b6116a78282856115e3565b600060209050601f8311600181146116da57600084156116c8578287015190505b6116d28582611654565b86555061173a565b601f1984166116e8866114c4565b60005b82811015611710578489015182556001820191506020850194506020810190506116eb565b8683101561172d5784890151611729601f891682611636565b8355505b6001600288020188555050505b505050505050565b61174b816110fa565b82525050565b61175a81611191565b82525050565b60006040820190506117756000830185611742565b6117826020830184611751565b9392505050565b7f4e487b7100000000000000000000000000000000000000000000000000000000600052603260045260246000fd5b7f4e487b7100000000000000000000000000000000000000000000000000000000600052601160045260246000fd5b60006117f282611191565b91507fffffffffffffffffffffffffffffffffffffffffffffffffffffffffffffffff8203611824576118236117b8565b5b600182019050919050565b600082825260208201905092915050565b7f496e76616c696420776f726b2049440000000000000000000000000000000000600082015250565b6000611876600f8361182f565b915061188182611840565b602082019050919050565b600060208201905081810360008301526118a581611869565b9050919050565b60006118b782611191565b91506118c283611191565b92508282039050818111156118da576118d96117b8565b5b92915050565b7f4e487b7100000000000000000000000000000000000000000000000000000000600052603160045260246000fdfea2646970667358221220f5ca135d8cd345d39a5cb7eb1da089ceed6556b70b9708fe39d8df6d811ad2c964736f6c63430008120033",
  "linkReferences": {},
  "deployedLinkReferences": {}
}