{
  "_format": "hh-sol-artifact-1",
  "contractName": "Library",
  "sourceName": "contracts/Library.sol",
  "abi": [
    {
      "anonymous": false,
      "inputs": [
        {
          "indexed": false,
          "internalType": "address",
          "name": "recipient",
          "type": "address"
        },
        {
          "indexed": false,
          "internalType": "uint256",
          "name": "workId",
          "type": "uint256"
        }
      ],
      "name": "AddWork",
      "type": "event"
    },
    {
      "anonymous": false,
      "inputs": [
        {
          "indexed": false,
          "internalType": "address",
          "name": "recipient",
          "type": "address"
        },
        {
          "indexed": false,
          "internalType": "uint256",
          "name": "workId",
          "type": "uint256"
        }
      ],
      "name": "DeleteWork",
      "type": "event"
    },
    {
      "inputs": [
        {
          "internalType": "string",
          "name": "name",
          "type": "string"
        },
        {
          "internalType": "uint16",
          "name": "year",
          "type": "uint16"
        },
        {
          "internalType": "string",
          "name": "author",
          "type": "string"
        },
        {
          "internalType": "string",
          "name": "ipfsHash",
          "type": "string"
        }
      ],
      "name": "addWork",
      "outputs": [],
      "stateMutability": "nonpayable",
      "type": "function"
    },
    {
      "inputs": [
        {
          "internalType": "uint256",
          "name": "workId",
          "type": "uint256"
        }
      ],
      "name": "deleteWork",
      "outputs": [],
      "stateMutability": "nonpayable",
      "type": "function"
    },
    {
      "inputs": [
        {
          "internalType": "uint256",
          "name": "workId",
          "type": "uint256"
        }
      ],
      "name": "getWorkById",
      "outputs": [
        {
          "components": [
            {
              "internalType": "uint256",
              "name": "id",
              "type": "uint256"
            },
            {
              "internalType": "string",
              "name": "name",
              "type": "string"
            },
            {
              "internalType": "uint256",
              "name": "year",
              "type": "uint256"
            },
            {
              "internalType": "string",
              "name": "author",
              "type": "string"
            },
            {
              "internalType": "string",
              "name": "ipfsHash",
              "type": "string"
            }
          ],
          "internalType": "struct Library.Work",
          "name": "",
          "type": "tuple"
        }
      ],
      "stateMutability": "view",
      "type": "function"
    },
    {
      "inputs": [],
      "name": "getWorkList",
      "outputs": [
        {
          "components": [
            {
              "internalType": "uint256",
              "name": "id",
              "type": "uint256"
            },
            {
              "internalType": "string",
              "name": "name",
              "type": "string"
            },
            {
              "internalType": "uint256",
              "name": "year",
              "type": "uint256"
            },
            {
              "internalType": "string",
              "name": "author",
              "type": "string"
            },
            {
              "internalType": "string",
              "name": "ipfsHash",
              "type": "string"
            }
          ],
          "internalType": "struct Library.Work[]",
          "name": "",
          "type": "tuple[]"
        }
      ],
      "stateMutability": "view",
      "type": "function"
    },
    {
      "inputs": [
        {
          "internalType": "address",
          "name": "_address",
          "type": "address"
        }
      ],
      "name": "getWorksByAddress",
      "outputs": [
        {
          "components": [
            {
              "internalType": "uint256",
              "name": "id",
              "type": "uint256"
            },
            {
              "internalType": "string",
              "name": "name",
              "type": "string"
            },
            {
              "internalType": "uint256",
              "name": "year",
              "type": "uint256"
            },
            {
              "internalType": "string",
              "name": "author",
              "type": "string"
            },
            {
              "internalType": "string",
              "name": "ipfsHash",
              "type": "string"
            }
          ],
          "internalType": "struct Library.Work[]",
          "name": "",
          "type": "tuple[]"
        }
      ],
      "stateMutability": "view",
      "type": "function"
    }
  ],
  "bytecode": "0x608060405234801561001057600080fd5b50611c15806100206000396000f3fe608060405234801561001057600080fd5b50600436106100575760003560e01c80632e94fa8f1461005c578063357abd0c146100785780638589c725146100a8578063bdf1fcc9146100c4578063e7e053fc146100f4575b600080fd5b6100766004803603810190610071919061125d565b610112565b005b610092600480360381019061008d9190611376565b61032a565b60405161009f9190611581565b60405180910390f35b6100c260048036038101906100bd91906115cf565b610705565b005b6100de60048036038101906100d991906115cf565b610a2a565b6040516100eb9190611680565b60405180910390f35b6100fc610c77565b6040516101099190611581565b60405180910390f35b60008080549050905060006040518060a001604052808381526020018781526020018661ffff16815260200185815260200184815250908060018154018082558091505060019003906000526020600020906005020160009091909190915060008201518160000155602082015181600101908161019091906118ae565b506040820151816002015560608201518160030190816101b091906118ae565b5060808201518160040190816101c691906118ae565b505050336001600083815260200190815260200160002060006101000a81548173ffffffffffffffffffffffffffffffffffffffff021916908373ffffffffffffffffffffffffffffffffffffffff1602179055507f1d694c32805025cec126fd58df01efc11762c9ec03f0143cbc6279506c5ea526338260405161024c92919061199e565b60405180910390a16001600360003373ffffffffffffffffffffffffffffffffffffffff1673ffffffffffffffffffffffffffffffffffffffff168152602001908152602001600020600083815260200190815260200160002060006101000a81548160ff021916908315150217905550600260003373ffffffffffffffffffffffffffffffffffffffff1673ffffffffffffffffffffffffffffffffffffffff1681526020019081526020016000208190806001815401808255809150506001900390600052602060002001600090919091909150555050505050565b60606000600260008473ffffffffffffffffffffffffffffffffffffffff1673ffffffffffffffffffffffffffffffffffffffff1681526020019081526020016000208054806020026020016040519081016040528092919081815260200182805480156103b757602002820191906000526020600020905b8154815260200190600101908083116103a3575b505050505090506000815167ffffffffffffffff8111156103db576103da6110f8565b5b60405190808252806020026020018201604052801561041457816020015b61040161103d565b8152602001906001900390816103f95790505b5090506000805b83518110156106ec576000848281518110610439576104386119c7565b5b602002602001015190506000805490508110156106d857600360008873ffffffffffffffffffffffffffffffffffffffff1673ffffffffffffffffffffffffffffffffffffffff168152602001908152602001600020600082815260200190815260200160002060009054906101000a900460ff16156106d757600081815481106104c7576104c66119c7565b5b90600052602060002090600502016040518060a0016040529081600082015481526020016001820180546104fa906116d1565b80601f0160208091040260200160405190810160405280929190818152602001828054610526906116d1565b80156105735780601f1061054857610100808354040283529160200191610573565b820191906000526020600020905b81548152906001019060200180831161055657829003601f168201915b5050505050815260200160028201548152602001600382018054610596906116d1565b80601f01602080910402602001604051908101604052809291908181526020018280546105c2906116d1565b801561060f5780601f106105e45761010080835404028352916020019161060f565b820191906000526020600020905b8154815290600101906020018083116105f257829003601f168201915b50505050508152602001600482018054610628906116d1565b80601f0160208091040260200160405190810160405280929190818152602001828054610654906116d1565b80156106a15780601f10610676576101008083540402835291602001916106a1565b820191906000526020600020905b81548152906001019060200180831161068457829003601f168201915b5050505050815250508484815181106106bd576106bc6119c7565b5b602002602001018190525082806106d390611a25565b9350505b5b5080806106e490611a25565b91505061041b565b5082518110156106fa578082525b819350505050919050565b600080549050811061074c576040517f08c379a000000000000000000000000000000000000000000000000000000000815260040161074390611aca565b60405180910390fd5b3373ffffffffffffffffffffffffffffffffffffffff166001600083815260200190815260200160002060009054906101000a900473ffffffffffffffffffffffffffffffffffffffff1673ffffffffffffffffffffffffffffffffffffffff16146107ed576040517f08c379a00000000000000000000000000000000000000000000000000000000081526004016107e490611b5c565b60405180910390fd5b60008181548110610801576108006119c7565b5b9060005260206000209060050201600080820160009055600182016000610828919061106c565b6002820160009055600382016000610840919061106c565b600482016000610850919061106c565b50506001600082815260200190815260200160002060006101000a81549073ffffffffffffffffffffffffffffffffffffffff0219169055600360003373ffffffffffffffffffffffffffffffffffffffff1673ffffffffffffffffffffffffffffffffffffffff168152602001908152602001600020600082815260200190815260200160002060006101000a81549060ff02191690556000600260003373ffffffffffffffffffffffffffffffffffffffff1673ffffffffffffffffffffffffffffffffffffffff168152602001908152602001600020905060005b81805490508110156109ec578282828154811061094e5761094d6119c7565b5b9060005260206000200154036109d95781600183805490506109709190611b7c565b81548110610981576109806119c7565b5b906000526020600020015482828154811061099f5761099e6119c7565b5b9060005260206000200181905550818054806109be576109bd611bb0565b5b600190038181906000526020600020016000905590556109ec565b80806109e490611a25565b91505061092e565b507f626180e89f2766961e1de0ee817d0918a77963752a55e2b8f12f891169c87daa3383604051610a1e92919061199e565b60405180910390a15050565b610a3261103d565b6000805490508210610a79576040517f08c379a0000000000000000000000000000000000000000000000000000000008152600401610a7090611aca565b60405180910390fd5b60008281548110610a8d57610a8c6119c7565b5b90600052602060002090600502016040518060a001604052908160008201548152602001600182018054610ac0906116d1565b80601f0160208091040260200160405190810160405280929190818152602001828054610aec906116d1565b8015610b395780601f10610b0e57610100808354040283529160200191610b39565b820191906000526020600020905b815481529060010190602001808311610b1c57829003601f168201915b5050505050815260200160028201548152602001600382018054610b5c906116d1565b80601f0160208091040260200160405190810160405280929190818152602001828054610b88906116d1565b8015610bd55780601f10610baa57610100808354040283529160200191610bd5565b820191906000526020600020905b815481529060010190602001808311610bb857829003601f168201915b50505050508152602001600482018054610bee906116d1565b80601f0160208091040260200160405190810160405280929190818152602001828054610c1a906116d1565b8015610c675780601f10610c3c57610100808354040283529160200191610c67565b820191906000526020600020905b815481529060010190602001808311610c4a57829003601f168201915b5050505050815250509050919050565b60606000808054905067ffffffffffffffff811115610c9957610c986110f8565b5b604051908082528060200260200182016040528015610cd257816020015b610cbf61103d565b815260200190600190039081610cb75790505b5090506000805b600080549050811015610f83573373ffffffffffffffffffffffffffffffffffffffff166001600083815260200190815260200160002060009054906101000a900473ffffffffffffffffffffffffffffffffffffffff1673ffffffffffffffffffffffffffffffffffffffff1603610f705760008181548110610d6057610d5f6119c7565b5b90600052602060002090600502016040518060a001604052908160008201548152602001600182018054610d93906116d1565b80601f0160208091040260200160405190810160405280929190818152602001828054610dbf906116d1565b8015610e0c5780601f10610de157610100808354040283529160200191610e0c565b820191906000526020600020905b815481529060010190602001808311610def57829003601f168201915b5050505050815260200160028201548152602001600382018054610e2f906116d1565b80601f0160208091040260200160405190810160405280929190818152602001828054610e5b906116d1565b8015610ea85780601f10610e7d57610100808354040283529160200191610ea8565b820191906000526020600020905b815481529060010190602001808311610e8b57829003601f168201915b50505050508152602001600482018054610ec1906116d1565b80601f0160208091040260200160405190810160405280929190818152602001828054610eed906116d1565b8015610f3a5780601f10610f0f57610100808354040283529160200191610f3a565b820191906000526020600020905b815481529060010190602001808311610f1d57829003601f168201915b505050505081525050838381518110610f5657610f556119c7565b5b60200260200101819052508180610f6c90611a25565b9250505b8080610f7b90611a25565b915050610cd9565b5060008167ffffffffffffffff811115610fa057610f9f6110f8565b5b604051908082528060200260200182016040528015610fd957816020015b610fc661103d565b815260200190600190039081610fbe5790505b50905060005b8281101561103357838181518110610ffa57610ff96119c7565b5b6020026020010151828281518110611015576110146119c7565b5b6020026020010181905250808061102b90611a25565b915050610fdf565b5080935050505090565b6040518060a0016040528060008152602001606081526020016000815260200160608152602001606081525090565b508054611078906116d1565b6000825580601f1061108a57506110a9565b601f0160209004906000526020600020908101906110a891906110ac565b5b50565b5b808211156110c55760008160009055506001016110ad565b5090565b6000604051905090565b600080fd5b600080fd5b600080fd5b600080fd5b6000601f19601f8301169050919050565b7f4e487b7100000000000000000000000000000000000000000000000000000000600052604160045260246000fd5b611130826110e7565b810181811067ffffffffffffffff8211171561114f5761114e6110f8565b5b80604052505050565b60006111626110c9565b905061116e8282611127565b919050565b600067ffffffffffffffff82111561118e5761118d6110f8565b5b611197826110e7565b9050602081019050919050565b82818337600083830152505050565b60006111c66111c184611173565b611158565b9050828152602081018484840111156111e2576111e16110e2565b5b6111ed8482856111a4565b509392505050565b600082601f83011261120a576112096110dd565b5b813561121a8482602086016111b3565b91505092915050565b600061ffff82169050919050565b61123a81611223565b811461124557600080fd5b50565b60008135905061125781611231565b92915050565b60008060008060808587031215611277576112766110d3565b5b600085013567ffffffffffffffff811115611295576112946110d8565b5b6112a1878288016111f5565b94505060206112b287828801611248565b935050604085013567ffffffffffffffff8111156112d3576112d26110d8565b5b6112df878288016111f5565b925050606085013567ffffffffffffffff811115611300576112ff6110d8565b5b61130c878288016111f5565b91505092959194509250565b600073ffffffffffffffffffffffffffffffffffffffff82169050919050565b600061134382611318565b9050919050565b61135381611338565b811461135e57600080fd5b50565b6000813590506113708161134a565b92915050565b60006020828403121561138c5761138b6110d3565b5b600061139a84828501611361565b91505092915050565b600081519050919050565b600082825260208201905092915050565b6000819050602082019050919050565b6000819050919050565b6113e2816113cf565b82525050565b600081519050919050565b600082825260208201905092915050565b60005b83811015611422578082015181840152602081019050611407565b60008484015250505050565b6000611439826113e8565b61144381856113f3565b9350611453818560208601611404565b61145c816110e7565b840191505092915050565b600060a08301600083015161147f60008601826113d9565b5060208301518482036020860152611497828261142e565b91505060408301516114ac60408601826113d9565b50606083015184820360608601526114c4828261142e565b915050608083015184820360808601526114de828261142e565b9150508091505092915050565b60006114f78383611467565b905092915050565b6000602082019050919050565b6000611517826113a3565b61152181856113ae565b935083602082028501611533856113bf565b8060005b8581101561156f578484038952815161155085826114eb565b945061155b836114ff565b925060208a01995050600181019050611537565b50829750879550505050505092915050565b6000602082019050818103600083015261159b818461150c565b905092915050565b6115ac816113cf565b81146115b757600080fd5b50565b6000813590506115c9816115a3565b92915050565b6000602082840312156115e5576115e46110d3565b5b60006115f3848285016115ba565b91505092915050565b600060a08301600083015161161460008601826113d9565b506020830151848203602086015261162c828261142e565b915050604083015161164160408601826113d9565b5060608301518482036060860152611659828261142e565b91505060808301518482036080860152611673828261142e565b9150508091505092915050565b6000602082019050818103600083015261169a81846115fc565b905092915050565b7f4e487b7100000000000000000000000000000000000000000000000000000000600052602260045260246000fd5b600060028204905060018216806116e957607f821691505b6020821081036116fc576116fb6116a2565b5b50919050565b60008190508160005260206000209050919050565b60006020601f8301049050919050565b600082821b905092915050565b6000600883026117647fffffffffffffffffffffffffffffffffffffffffffffffffffffffffffffffff82611727565b61176e8683611727565b95508019841693508086168417925050509392505050565b6000819050919050565b60006117ab6117a66117a1846113cf565b611786565b6113cf565b9050919050565b6000819050919050565b6117c583611790565b6117d96117d1826117b2565b848454611734565b825550505050565b600090565b6117ee6117e1565b6117f98184846117bc565b505050565b5b8181101561181d576118126000826117e6565b6001810190506117ff565b5050565b601f8211156118625761183381611702565b61183c84611717565b8101602085101561184b578190505b61185f61185785611717565b8301826117fe565b50505b505050565b600082821c905092915050565b600061188560001984600802611867565b1980831691505092915050565b600061189e8383611874565b9150826002028217905092915050565b6118b7826113e8565b67ffffffffffffffff8111156118d0576118cf6110f8565b5b6118da82546116d1565b6118e5828285611821565b600060209050601f8311600181146119185760008415611906578287015190505b6119108582611892565b865550611978565b601f19841661192686611702565b60005b8281101561194e57848901518255600182019150602085019450602081019050611929565b8683101561196b5784890151611967601f891682611874565b8355505b6001600288020188555050505b505050505050565b61198981611338565b82525050565b611998816113cf565b82525050565b60006040820190506119b36000830185611980565b6119c0602083018461198f565b9392505050565b7f4e487b7100000000000000000000000000000000000000000000000000000000600052603260045260246000fd5b7f4e487b7100000000000000000000000000000000000000000000000000000000600052601160045260246000fd5b6000611a30826113cf565b91507fffffffffffffffffffffffffffffffffffffffffffffffffffffffffffffffff8203611a6257611a616119f6565b5b600182019050919050565b600082825260208201905092915050565b7f496e76616c696420776f726b2049440000000000000000000000000000000000600082015250565b6000611ab4600f83611a6d565b9150611abf82611a7e565b602082019050919050565b60006020820190508181036000830152611ae381611aa7565b9050919050565b7f596f7520617265206e6f7420746865206f776e6572206f66207468697320776f60008201527f726b000000000000000000000000000000000000000000000000000000000000602082015250565b6000611b46602283611a6d565b9150611b5182611aea565b604082019050919050565b60006020820190508181036000830152611b7581611b39565b9050919050565b6000611b87826113cf565b9150611b92836113cf565b9250828203905081811115611baa57611ba96119f6565b5b92915050565b7f4e487b7100000000000000000000000000000000000000000000000000000000600052603160045260246000fdfea26469706673582212200a2ea5aa610e06bd54c52832353d1299c05aacb038a8f5a34c4ade0385ab505364736f6c63430008120033",
  "linkReferences": {},
  "deployedLinkReferences": {}
}