{
  "_format": "hh-sol-artifact-1",
  "contractName": "Library",
  "sourceName": "contracts/Library.sol",
  "abi": [
    {
      "anonymous": false,
      "inputs": [
        {
          "indexed": false,
          "internalType": "address",
          "name": "recipient",
          "type": "address"
        },
        {
          "indexed": false,
          "internalType": "uint256",
          "name": "workId",
          "type": "uint256"
        }
      ],
      "name": "AddWork",
      "type": "event"
    },
    {
      "anonymous": false,
      "inputs": [
        {
          "indexed": false,
          "internalType": "address",
          "name": "recipient",
          "type": "address"
        },
        {
          "indexed": false,
          "internalType": "uint256",
          "name": "workId",
          "type": "uint256"
        }
      ],
      "name": "DeleteWork",
      "type": "event"
    },
    {
      "inputs": [
        {
          "internalType": "string",
          "name": "name",
          "type": "string"
        },
        {
          "internalType": "uint16",
          "name": "year",
          "type": "uint16"
        },
        {
          "internalType": "string",
          "name": "author",
          "type": "string"
        },
        {
          "internalType": "string",
          "name": "ipfsHash",
          "type": "string"
        }
      ],
      "name": "addWork",
      "outputs": [],
      "stateMutability": "nonpayable",
      "type": "function"
    },
    {
      "inputs": [
        {
          "internalType": "uint256",
          "name": "workId",
          "type": "uint256"
        }
      ],
      "name": "deleteWork",
      "outputs": [],
      "stateMutability": "nonpayable",
      "type": "function"
    },
    {
      "inputs": [
        {
          "internalType": "uint256",
          "name": "workId",
          "type": "uint256"
        }
      ],
      "name": "getWorkById",
      "outputs": [
        {
          "components": [
            {
              "internalType": "uint256",
              "name": "id",
              "type": "uint256"
            },
            {
              "internalType": "string",
              "name": "name",
              "type": "string"
            },
            {
              "internalType": "uint256",
              "name": "year",
              "type": "uint256"
            },
            {
              "internalType": "string",
              "name": "author",
              "type": "string"
            },
            {
              "internalType": "string",
              "name": "ipfsHash",
              "type": "string"
            }
          ],
          "internalType": "struct Library.Work",
          "name": "",
          "type": "tuple"
        }
      ],
      "stateMutability": "view",
      "type": "function"
    },
    {
      "inputs": [],
      "name": "getWorkList",
      "outputs": [
        {
          "components": [
            {
              "internalType": "uint256",
              "name": "id",
              "type": "uint256"
            },
            {
              "internalType": "string",
              "name": "name",
              "type": "string"
            },
            {
              "internalType": "uint256",
              "name": "year",
              "type": "uint256"
            },
            {
              "internalType": "string",
              "name": "author",
              "type": "string"
            },
            {
              "internalType": "string",
              "name": "ipfsHash",
              "type": "string"
            }
          ],
          "internalType": "struct Library.Work[]",
          "name": "",
          "type": "tuple[]"
        }
      ],
      "stateMutability": "view",
      "type": "function"
    },
    {
      "inputs": [
        {
          "internalType": "address",
          "name": "_address",
          "type": "address"
        }
      ],
      "name": "getWorksByAddress",
      "outputs": [
        {
          "components": [
            {
              "internalType": "uint256",
              "name": "id",
              "type": "uint256"
            },
            {
              "internalType": "string",
              "name": "name",
              "type": "string"
            },
            {
              "internalType": "uint256",
              "name": "year",
              "type": "uint256"
            },
            {
              "internalType": "string",
              "name": "author",
              "type": "string"
            },
            {
              "internalType": "string",
              "name": "ipfsHash",
              "type": "string"
            }
          ],
          "internalType": "struct Library.Work[]",
          "name": "",
          "type": "tuple[]"
        }
      ],
      "stateMutability": "view",
      "type": "function"
    },
    {
      "inputs": [
        {
          "internalType": "uint256",
          "name": "",
          "type": "uint256"
        }
      ],
      "name": "workList",
      "outputs": [
        {
          "internalType": "uint256",
          "name": "id",
          "type": "uint256"
        },
        {
          "internalType": "string",
          "name": "name",
          "type": "string"
        },
        {
          "internalType": "uint256",
          "name": "year",
          "type": "uint256"
        },
        {
          "internalType": "string",
          "name": "author",
          "type": "string"
        },
        {
          "internalType": "string",
          "name": "ipfsHash",
          "type": "string"
        }
      ],
      "stateMutability": "view",
      "type": "function"
    }
  ],
  "bytecode": "0x608060405234801561001057600080fd5b50611c03806100206000396000f3fe608060405234801561001057600080fd5b50600436106100625760003560e01c80632e94fa8f14610067578063357abd0c1461008357806363806527146100b35780638589c725146100e7578063bdf1fcc914610103578063e7e053fc14610133575b600080fd5b610081600480360381019061007c919061123c565b610151565b005b61009d60048036038101906100989190611355565b610369565b6040516100aa9190611560565b60405180910390f35b6100cd60048036038101906100c891906115ae565b610744565b6040516100de959493929190611634565b60405180910390f35b61010160048036038101906100fc91906115ae565b610922565b005b61011d600480360381019061011891906115ae565b610ba6565b60405161012a9190611720565b60405180910390f35b61013b610df3565b6040516101489190611560565b60405180910390f35b60008080549050905060006040518060a001604052808381526020018781526020018661ffff1681526020018581526020018481525090806001815401808255809150506001900390600052602060002090600502016000909190919091506000820151816000015560208201518160010190816101cf919061194e565b506040820151816002015560608201518160030190816101ef919061194e565b506080820151816004019081610205919061194e565b505050336001600083815260200190815260200160002060006101000a81548173ffffffffffffffffffffffffffffffffffffffff021916908373ffffffffffffffffffffffffffffffffffffffff1602179055507f1d694c32805025cec126fd58df01efc11762c9ec03f0143cbc6279506c5ea526338260405161028b929190611a2f565b60405180910390a16001600360003373ffffffffffffffffffffffffffffffffffffffff1673ffffffffffffffffffffffffffffffffffffffff168152602001908152602001600020600083815260200190815260200160002060006101000a81548160ff021916908315150217905550600260003373ffffffffffffffffffffffffffffffffffffffff1673ffffffffffffffffffffffffffffffffffffffff1681526020019081526020016000208190806001815401808255809150506001900390600052602060002001600090919091909150555050505050565b60606000600260008473ffffffffffffffffffffffffffffffffffffffff1673ffffffffffffffffffffffffffffffffffffffff1681526020019081526020016000208054806020026020016040519081016040528092919081815260200182805480156103f657602002820191906000526020600020905b8154815260200190600101908083116103e2575b505050505090506000815167ffffffffffffffff81111561041a576104196110d7565b5b60405190808252806020026020018201604052801561045357816020015b61044061101c565b8152602001906001900390816104385790505b5090506000805b835181101561072b57600084828151811061047857610477611a58565b5b6020026020010151905060008054905081101561071757600360008873ffffffffffffffffffffffffffffffffffffffff1673ffffffffffffffffffffffffffffffffffffffff168152602001908152602001600020600082815260200190815260200160002060009054906101000a900460ff1615610716576000818154811061050657610505611a58565b5b90600052602060002090600502016040518060a00160405290816000820154815260200160018201805461053990611771565b80601f016020809104026020016040519081016040528092919081815260200182805461056590611771565b80156105b25780601f10610587576101008083540402835291602001916105b2565b820191906000526020600020905b81548152906001019060200180831161059557829003601f168201915b50505050508152602001600282015481526020016003820180546105d590611771565b80601f016020809104026020016040519081016040528092919081815260200182805461060190611771565b801561064e5780601f106106235761010080835404028352916020019161064e565b820191906000526020600020905b81548152906001019060200180831161063157829003601f168201915b5050505050815260200160048201805461066790611771565b80601f016020809104026020016040519081016040528092919081815260200182805461069390611771565b80156106e05780601f106106b5576101008083540402835291602001916106e0565b820191906000526020600020905b8154815290600101906020018083116106c357829003601f168201915b5050505050815250508484815181106106fc576106fb611a58565b5b6020026020010181905250828061071290611ab6565b9350505b5b50808061072390611ab6565b91505061045a565b508251811015610739578082525b819350505050919050565b6000818154811061075457600080fd5b906000526020600020906005020160009150905080600001549080600101805461077d90611771565b80601f01602080910402602001604051908101604052809291908181526020018280546107a990611771565b80156107f65780601f106107cb576101008083540402835291602001916107f6565b820191906000526020600020905b8154815290600101906020018083116107d957829003601f168201915b50505050509080600201549080600301805461081190611771565b80601f016020809104026020016040519081016040528092919081815260200182805461083d90611771565b801561088a5780601f1061085f5761010080835404028352916020019161088a565b820191906000526020600020905b81548152906001019060200180831161086d57829003601f168201915b50505050509080600401805461089f90611771565b80601f01602080910402602001604051908101604052809291908181526020018280546108cb90611771565b80156109185780601f106108ed57610100808354040283529160200191610918565b820191906000526020600020905b8154815290600101906020018083116108fb57829003601f168201915b5050505050905085565b6000805490508110610969576040517f08c379a000000000000000000000000000000000000000000000000000000000815260040161096090611b4a565b60405180910390fd5b6000818154811061097d5761097c611a58565b5b90600052602060002090600502016000808201600090556001820160006109a4919061104b565b60028201600090556003820160006109bc919061104b565b6004820160006109cc919061104b565b50506001600082815260200190815260200160002060006101000a81549073ffffffffffffffffffffffffffffffffffffffff0219169055600360003373ffffffffffffffffffffffffffffffffffffffff1673ffffffffffffffffffffffffffffffffffffffff168152602001908152602001600020600082815260200190815260200160002060006101000a81549060ff02191690556000600260003373ffffffffffffffffffffffffffffffffffffffff1673ffffffffffffffffffffffffffffffffffffffff168152602001908152602001600020905060005b8180549050811015610b685782828281548110610aca57610ac9611a58565b5b906000526020600020015403610b55578160018380549050610aec9190611b6a565b81548110610afd57610afc611a58565b5b9060005260206000200154828281548110610b1b57610b1a611a58565b5b906000526020600020018190555081805480610b3a57610b39611b9e565b5b60019003818190600052602060002001600090559055610b68565b8080610b6090611ab6565b915050610aaa565b507f626180e89f2766961e1de0ee817d0918a77963752a55e2b8f12f891169c87daa3383604051610b9a929190611a2f565b60405180910390a15050565b610bae61101c565b6000805490508210610bf5576040517f08c379a0000000000000000000000000000000000000000000000000000000008152600401610bec90611b4a565b60405180910390fd5b60008281548110610c0957610c08611a58565b5b90600052602060002090600502016040518060a001604052908160008201548152602001600182018054610c3c90611771565b80601f0160208091040260200160405190810160405280929190818152602001828054610c6890611771565b8015610cb55780601f10610c8a57610100808354040283529160200191610cb5565b820191906000526020600020905b815481529060010190602001808311610c9857829003601f168201915b5050505050815260200160028201548152602001600382018054610cd890611771565b80601f0160208091040260200160405190810160405280929190818152602001828054610d0490611771565b8015610d515780601f10610d2657610100808354040283529160200191610d51565b820191906000526020600020905b815481529060010190602001808311610d3457829003601f168201915b50505050508152602001600482018054610d6a90611771565b80601f0160208091040260200160405190810160405280929190818152602001828054610d9690611771565b8015610de35780601f10610db857610100808354040283529160200191610de3565b820191906000526020600020905b815481529060010190602001808311610dc657829003601f168201915b5050505050815250509050919050565b60606000805480602002602001604051908101604052809291908181526020016000905b8282101561101357838290600052602060002090600502016040518060a001604052908160008201548152602001600182018054610e5490611771565b80601f0160208091040260200160405190810160405280929190818152602001828054610e8090611771565b8015610ecd5780601f10610ea257610100808354040283529160200191610ecd565b820191906000526020600020905b815481529060010190602001808311610eb057829003601f168201915b5050505050815260200160028201548152602001600382018054610ef090611771565b80601f0160208091040260200160405190810160405280929190818152602001828054610f1c90611771565b8015610f695780601f10610f3e57610100808354040283529160200191610f69565b820191906000526020600020905b815481529060010190602001808311610f4c57829003601f168201915b50505050508152602001600482018054610f8290611771565b80601f0160208091040260200160405190810160405280929190818152602001828054610fae90611771565b8015610ffb5780601f10610fd057610100808354040283529160200191610ffb565b820191906000526020600020905b815481529060010190602001808311610fde57829003601f168201915b50505050508152505081526020019060010190610e17565b50505050905090565b6040518060a0016040528060008152602001606081526020016000815260200160608152602001606081525090565b50805461105790611771565b6000825580601f106110695750611088565b601f016020900490600052602060002090810190611087919061108b565b5b50565b5b808211156110a457600081600090555060010161108c565b5090565b6000604051905090565b600080fd5b600080fd5b600080fd5b600080fd5b6000601f19601f8301169050919050565b7f4e487b7100000000000000000000000000000000000000000000000000000000600052604160045260246000fd5b61110f826110c6565b810181811067ffffffffffffffff8211171561112e5761112d6110d7565b5b80604052505050565b60006111416110a8565b905061114d8282611106565b919050565b600067ffffffffffffffff82111561116d5761116c6110d7565b5b611176826110c6565b9050602081019050919050565b82818337600083830152505050565b60006111a56111a084611152565b611137565b9050828152602081018484840111156111c1576111c06110c1565b5b6111cc848285611183565b509392505050565b600082601f8301126111e9576111e86110bc565b5b81356111f9848260208601611192565b91505092915050565b600061ffff82169050919050565b61121981611202565b811461122457600080fd5b50565b60008135905061123681611210565b92915050565b60008060008060808587031215611256576112556110b2565b5b600085013567ffffffffffffffff811115611274576112736110b7565b5b611280878288016111d4565b945050602061129187828801611227565b935050604085013567ffffffffffffffff8111156112b2576112b16110b7565b5b6112be878288016111d4565b925050606085013567ffffffffffffffff8111156112df576112de6110b7565b5b6112eb878288016111d4565b91505092959194509250565b600073ffffffffffffffffffffffffffffffffffffffff82169050919050565b6000611322826112f7565b9050919050565b61133281611317565b811461133d57600080fd5b50565b60008135905061134f81611329565b92915050565b60006020828403121561136b5761136a6110b2565b5b600061137984828501611340565b91505092915050565b600081519050919050565b600082825260208201905092915050565b6000819050602082019050919050565b6000819050919050565b6113c1816113ae565b82525050565b600081519050919050565b600082825260208201905092915050565b60005b838110156114015780820151818401526020810190506113e6565b60008484015250505050565b6000611418826113c7565b61142281856113d2565b93506114328185602086016113e3565b61143b816110c6565b840191505092915050565b600060a08301600083015161145e60008601826113b8565b5060208301518482036020860152611476828261140d565b915050604083015161148b60408601826113b8565b50606083015184820360608601526114a3828261140d565b915050608083015184820360808601526114bd828261140d565b9150508091505092915050565b60006114d68383611446565b905092915050565b6000602082019050919050565b60006114f682611382565b611500818561138d565b9350836020820285016115128561139e565b8060005b8581101561154e578484038952815161152f85826114ca565b945061153a836114de565b925060208a01995050600181019050611516565b50829750879550505050505092915050565b6000602082019050818103600083015261157a81846114eb565b905092915050565b61158b816113ae565b811461159657600080fd5b50565b6000813590506115a881611582565b92915050565b6000602082840312156115c4576115c36110b2565b5b60006115d284828501611599565b91505092915050565b6115e4816113ae565b82525050565b600082825260208201905092915050565b6000611606826113c7565b61161081856115ea565b93506116208185602086016113e3565b611629816110c6565b840191505092915050565b600060a08201905061164960008301886115db565b818103602083015261165b81876115fb565b905061166a60408301866115db565b818103606083015261167c81856115fb565b9050818103608083015261169081846115fb565b90509695505050505050565b600060a0830160008301516116b460008601826113b8565b50602083015184820360208601526116cc828261140d565b91505060408301516116e160408601826113b8565b50606083015184820360608601526116f9828261140d565b91505060808301518482036080860152611713828261140d565b9150508091505092915050565b6000602082019050818103600083015261173a818461169c565b905092915050565b7f4e487b7100000000000000000000000000000000000000000000000000000000600052602260045260246000fd5b6000600282049050600182168061178957607f821691505b60208210810361179c5761179b611742565b5b50919050565b60008190508160005260206000209050919050565b60006020601f8301049050919050565b600082821b905092915050565b6000600883026118047fffffffffffffffffffffffffffffffffffffffffffffffffffffffffffffffff826117c7565b61180e86836117c7565b95508019841693508086168417925050509392505050565b6000819050919050565b600061184b611846611841846113ae565b611826565b6113ae565b9050919050565b6000819050919050565b61186583611830565b61187961187182611852565b8484546117d4565b825550505050565b600090565b61188e611881565b61189981848461185c565b505050565b5b818110156118bd576118b2600082611886565b60018101905061189f565b5050565b601f821115611902576118d3816117a2565b6118dc846117b7565b810160208510156118eb578190505b6118ff6118f7856117b7565b83018261189e565b50505b505050565b600082821c905092915050565b600061192560001984600802611907565b1980831691505092915050565b600061193e8383611914565b9150826002028217905092915050565b611957826113c7565b67ffffffffffffffff8111156119705761196f6110d7565b5b61197a8254611771565b6119858282856118c1565b600060209050601f8311600181146119b857600084156119a6578287015190505b6119b08582611932565b865550611a18565b601f1984166119c6866117a2565b60005b828110156119ee578489015182556001820191506020850194506020810190506119c9565b86831015611a0b5784890151611a07601f891682611914565b8355505b6001600288020188555050505b505050505050565b611a2981611317565b82525050565b6000604082019050611a446000830185611a20565b611a5160208301846115db565b9392505050565b7f4e487b7100000000000000000000000000000000000000000000000000000000600052603260045260246000fd5b7f4e487b7100000000000000000000000000000000000000000000000000000000600052601160045260246000fd5b6000611ac1826113ae565b91507fffffffffffffffffffffffffffffffffffffffffffffffffffffffffffffffff8203611af357611af2611a87565b5b600182019050919050565b7f496e76616c696420776f726b2049440000000000000000000000000000000000600082015250565b6000611b34600f836115ea565b9150611b3f82611afe565b602082019050919050565b60006020820190508181036000830152611b6381611b27565b9050919050565b6000611b75826113ae565b9150611b80836113ae565b9250828203905081811115611b9857611b97611a87565b5b92915050565b7f4e487b7100000000000000000000000000000000000000000000000000000000600052603160045260246000fdfea2646970667358221220a89a8d4314a66ac67550bae1528120ef1e52980943bbfebbe2d54dce72b42a9c64736f6c63430008120033",
  "linkReferences": {},
  "deployedLinkReferences": {}
}